{
  "contractName": "StakingPool",
  "abi": [
    {
      "inputs": [
        {
          "internalType": "address",
          "name": "_neoToken",
          "type": "address"
        },
        {
          "internalType": "address",
          "name": "_rewardToken",
          "type": "address"
        }
      ],
      "stateMutability": "nonpayable",
      "type": "constructor"
    },
    {
      "anonymous": false,
      "inputs": [
        {
          "indexed": true,
          "internalType": "address",
          "name": "user",
          "type": "address"
        },
        {
          "indexed": true,
          "internalType": "uint256",
          "name": "amount",
          "type": "uint256"
        }
      ],
      "name": "RewardsClaimed",
      "type": "event"
    },
    {
      "anonymous": false,
      "inputs": [
        {
          "indexed": true,
          "internalType": "address",
          "name": "user",
          "type": "address"
        },
        {
          "indexed": true,
          "internalType": "uint256",
          "name": "amount",
          "type": "uint256"
        }
      ],
      "name": "Staked",
      "type": "event"
    },
    {
      "anonymous": false,
      "inputs": [
        {
          "indexed": true,
          "internalType": "address",
          "name": "user",
          "type": "address"
        },
        {
          "indexed": true,
          "internalType": "uint256",
          "name": "amount",
          "type": "uint256"
        }
      ],
      "name": "WithdrewStake",
      "type": "event"
    },
    {
      "inputs": [],
      "name": "RewardRate",
      "outputs": [
        {
          "internalType": "uint256",
          "name": "",
          "type": "uint256"
        }
      ],
      "stateMutability": "view",
      "type": "function",
      "constant": true
    },
    {
      "inputs": [],
      "name": "lastTimeUpdate",
      "outputs": [
        {
          "internalType": "uint256",
          "name": "",
          "type": "uint256"
        }
      ],
      "stateMutability": "view",
      "type": "function",
      "constant": true
    },
    {
      "inputs": [],
      "name": "neoToken",
      "outputs": [
        {
          "internalType": "contract NeoToken",
          "name": "",
          "type": "address"
        }
      ],
      "stateMutability": "view",
      "type": "function",
      "constant": true
    },
    {
      "inputs": [],
      "name": "rewardPerTokenStored",
      "outputs": [
        {
          "internalType": "uint256",
          "name": "",
          "type": "uint256"
        }
      ],
      "stateMutability": "view",
      "type": "function",
      "constant": true
    },
    {
      "inputs": [],
      "name": "rewardToken",
      "outputs": [
        {
          "internalType": "contract RewardToken",
          "name": "",
          "type": "address"
        }
      ],
      "stateMutability": "view",
      "type": "function",
      "constant": true
    },
    {
      "inputs": [
        {
          "internalType": "address",
          "name": "",
          "type": "address"
        }
      ],
      "name": "rewardsEarned",
      "outputs": [
        {
          "internalType": "uint256",
          "name": "",
          "type": "uint256"
        }
      ],
      "stateMutability": "view",
      "type": "function",
      "constant": true
    },
    {
      "inputs": [],
      "name": "stotalSupply",
      "outputs": [
        {
          "internalType": "uint256",
          "name": "",
          "type": "uint256"
        }
      ],
      "stateMutability": "view",
      "type": "function",
      "constant": true
    },
    {
      "inputs": [
        {
          "internalType": "address",
          "name": "",
          "type": "address"
        }
      ],
      "name": "userRewardPerTokenPaid",
      "outputs": [
        {
          "internalType": "uint256",
          "name": "",
          "type": "uint256"
        }
      ],
      "stateMutability": "view",
      "type": "function",
      "constant": true
    },
    {
      "inputs": [
        {
          "internalType": "address",
          "name": "",
          "type": "address"
        }
      ],
      "name": "userStakingBalance",
      "outputs": [
        {
          "internalType": "uint256",
          "name": "",
          "type": "uint256"
        }
      ],
      "stateMutability": "view",
      "type": "function",
      "constant": true
    },
    {
      "inputs": [],
      "name": "rewardPerStakedToken",
      "outputs": [
        {
          "internalType": "uint256",
          "name": "",
          "type": "uint256"
        }
      ],
      "stateMutability": "view",
      "type": "function",
      "constant": true
    },
    {
      "inputs": [
        {
          "internalType": "address",
          "name": "account",
          "type": "address"
        }
      ],
      "name": "earned",
      "outputs": [
        {
          "internalType": "uint256",
          "name": "",
          "type": "uint256"
        }
      ],
      "stateMutability": "view",
      "type": "function",
      "constant": true
    },
    {
      "inputs": [
        {
          "internalType": "uint256",
          "name": "amount",
          "type": "uint256"
        }
      ],
      "name": "stake",
      "outputs": [],
      "stateMutability": "nonpayable",
      "type": "function"
    },
    {
      "inputs": [
        {
          "internalType": "uint256",
          "name": "amount",
          "type": "uint256"
        }
      ],
      "name": "unstake",
      "outputs": [],
      "stateMutability": "nonpayable",
      "type": "function"
    },
    {
      "inputs": [],
      "name": "claimRewards",
      "outputs": [],
      "stateMutability": "nonpayable",
      "type": "function"
    },
    {
      "inputs": [],
      "name": "totalSupplyStaked",
      "outputs": [
        {
          "internalType": "uint256",
          "name": "",
          "type": "uint256"
        }
      ],
      "stateMutability": "view",
      "type": "function",
      "constant": true
    },
    {
      "inputs": [
        {
          "internalType": "address",
          "name": "account",
          "type": "address"
        }
      ],
      "name": "balanceOfUserStaked",
      "outputs": [
        {
          "internalType": "uint256",
          "name": "",
          "type": "uint256"
        }
      ],
      "stateMutability": "view",
      "type": "function",
      "constant": true
    }
  ],
  "bytecode": "0x60806040523480156200001157600080fd5b506040516200142338038062001423833981810160405281019062000037919062000133565b600160008190555081600160006101000a81548173ffffffffffffffffffffffffffffffffffffffff021916908373ffffffffffffffffffffffffffffffffffffffff16021790555080600260006101000a81548173ffffffffffffffffffffffffffffffffffffffff021916908373ffffffffffffffffffffffffffffffffffffffff16021790555050506200017a565b600080fd5b600073ffffffffffffffffffffffffffffffffffffffff82169050919050565b6000620000fb82620000ce565b9050919050565b6200010d81620000ee565b81146200011957600080fd5b50565b6000815190506200012d8162000102565b92915050565b600080604083850312156200014d576200014c620000c9565b5b60006200015d858286016200011c565b925050602062000170858286016200011c565b9150509250929050565b611299806200018a6000396000f3fe608060405234801561001057600080fd5b50600436106100ff5760003560e01c80638a1833a511610097578063a694fc3a11610066578063a694fc3a146102b0578063c5f0d170146102cc578063df136d65146102ea578063f7c618c114610308576100ff565b80638a1833a5146102025780638b876347146102205780638bfea43914610250578063966d13ee14610280576100ff565b8063372500ab116100d3578063372500ab1461018c5780634b3a218114610196578063631b8ad3146101b4578063847de325146101d2576100ff565b80628cc26214610104578063035ac8141461013457806322d8882c146101525780632e17de7814610170575b600080fd5b61011e60048036038101906101199190610d76565b610326565b60405161012b9190610dbc565b60405180910390f35b61013c610445565b6040516101499190610dbc565b60405180910390f35b61015a61044b565b6040516101679190610dbc565b60405180910390f35b61018a60048036038101906101859190610e03565b610451565b005b6101946106a4565b005b61019e610889565b6040516101ab9190610dbc565b60405180910390f35b6101bc6108eb565b6040516101c99190610dbc565b60405180910390f35b6101ec60048036038101906101e79190610d76565b6108f5565b6040516101f99190610dbc565b60405180910390f35b61020a61093e565b6040516102179190610dbc565b60405180910390f35b61023a60048036038101906102359190610d76565b610943565b6040516102479190610dbc565b60405180910390f35b61026a60048036038101906102659190610d76565b61095b565b6040516102779190610dbc565b60405180910390f35b61029a60048036038101906102959190610d76565b610973565b6040516102a79190610dbc565b60405180910390f35b6102ca60048036038101906102c59190610e03565b61098b565b005b6102d4610c68565b6040516102e19190610e8f565b60405180910390f35b6102f2610c8e565b6040516102ff9190610dbc565b60405180910390f35b610310610c94565b60405161031d9190610ecb565b60405180910390f35b600080600560008473ffffffffffffffffffffffffffffffffffffffff1673ffffffffffffffffffffffffffffffffffffffff1681526020019081526020016000205490506000600760008573ffffffffffffffffffffffffffffffffffffffff1673ffffffffffffffffffffffffffffffffffffffff16815260200190815260200160002054905060006103b9610889565b90506000600660008773ffffffffffffffffffffffffffffffffffffffff1673ffffffffffffffffffffffffffffffffffffffff168152602001908152602001600020549050600081670de0b6b3a764000085856104179190610f15565b876104229190610f49565b61042c9190610fba565b6104369190610feb565b90508095505050505050919050565b60035481565b60085481565b610459610cba565b33610462610889565b6004819055504260038190555061047881610326565b600660008373ffffffffffffffffffffffffffffffffffffffff1673ffffffffffffffffffffffffffffffffffffffff16815260200190815260200160002081905550600454600760003373ffffffffffffffffffffffffffffffffffffffff1673ffffffffffffffffffffffffffffffffffffffff1681526020019081526020016000208190555060008211610544576040517f08c379a000000000000000000000000000000000000000000000000000000000815260040161053b9061107c565b60405180910390fd5b81600860008282546105569190610f15565b9250508190555081600560003373ffffffffffffffffffffffffffffffffffffffff1673ffffffffffffffffffffffffffffffffffffffff16815260200190815260200160002060008282546105ac9190610f15565b92505081905550600160009054906101000a900473ffffffffffffffffffffffffffffffffffffffff1673ffffffffffffffffffffffffffffffffffffffff1663a9059cbb33846040518363ffffffff1660e01b81526004016106109291906110ab565b6020604051808303816000875af115801561062f573d6000803e3d6000fd5b505050506040513d601f19601f82011682018060405250810190610653919061110c565b50813373ffffffffffffffffffffffffffffffffffffffff167f4cb6da433ea55f6e302b7bdbfeed740816a42301cde7f5bac5dff2b34037637460405160405180910390a3506106a1610d09565b50565b6106ac610cba565b336106b5610889565b600481905550426003819055506106cb81610326565b600660008373ffffffffffffffffffffffffffffffffffffffff1673ffffffffffffffffffffffffffffffffffffffff16815260200190815260200160002081905550600454600760003373ffffffffffffffffffffffffffffffffffffffff1673ffffffffffffffffffffffffffffffffffffffff168152602001908152602001600020819055506000600660003373ffffffffffffffffffffffffffffffffffffffff1673ffffffffffffffffffffffffffffffffffffffff168152602001908152602001600020549050600260009054906101000a900473ffffffffffffffffffffffffffffffffffffffff1673ffffffffffffffffffffffffffffffffffffffff1663a9059cbb33836040518363ffffffff1660e01b81526004016107f59291906110ab565b6020604051808303816000875af1158015610814573d6000803e3d6000fd5b505050506040513d601f19601f82011682018060405250810190610838919061110c565b50803373ffffffffffffffffffffffffffffffffffffffff167ffc30cddea38e2bf4d6ea7d3f9ed3b6ad7f176419f4963bd81318067a4aee73fe60405160405180910390a35050610887610d09565b565b6000806008540361089e5760045490506108e8565b600854670de0b6b3a7640000600354426108b89190610f15565b60646108c49190610f49565b6108ce9190610f49565b6108d89190610fba565b6004546108e59190610feb565b90505b90565b6000600854905090565b6000600560008373ffffffffffffffffffffffffffffffffffffffff1673ffffffffffffffffffffffffffffffffffffffff168152602001908152602001600020549050919050565b606481565b60076020528060005260406000206000915090505481565b60066020528060005260406000206000915090505481565b60056020528060005260406000206000915090505481565b610993610cba565b3361099c610889565b600481905550426003819055506109b281610326565b600660008373ffffffffffffffffffffffffffffffffffffffff1673ffffffffffffffffffffffffffffffffffffffff16815260200190815260200160002081905550600454600760003373ffffffffffffffffffffffffffffffffffffffff1673ffffffffffffffffffffffffffffffffffffffff1681526020019081526020016000208190555060008211610a7e576040517f08c379a0000000000000000000000000000000000000000000000000000000008152600401610a7590611185565b60405180910390fd5b81600854610a8c9190610feb565b60088190555081600560003373ffffffffffffffffffffffffffffffffffffffff1673ffffffffffffffffffffffffffffffffffffffff1681526020019081526020016000206000828254610ae19190610feb565b92505081905550600160009054906101000a900473ffffffffffffffffffffffffffffffffffffffff1673ffffffffffffffffffffffffffffffffffffffff166323b872dd3330856040518463ffffffff1660e01b8152600401610b47939291906111a5565b6020604051808303816000875af1158015610b66573d6000803e3d6000fd5b505050506040513d601f19601f82011682018060405250810190610b8a919061110c565b50600260009054906101000a900473ffffffffffffffffffffffffffffffffffffffff1673ffffffffffffffffffffffffffffffffffffffff16636a627842306040518263ffffffff1660e01b8152600401610be691906111dc565b600060405180830381600087803b158015610c0057600080fd5b505af1158015610c14573d6000803e3d6000fd5b50505050813373ffffffffffffffffffffffffffffffffffffffff167f9e71bc8eea02a63969f509818f2dafb9254532904319f9dbda79b67bd34a5f3d60405160405180910390a350610c65610d09565b50565b600160009054906101000a900473ffffffffffffffffffffffffffffffffffffffff1681565b60045481565b600260009054906101000a900473ffffffffffffffffffffffffffffffffffffffff1681565b600260005403610cff576040517f08c379a0000000000000000000000000000000000000000000000000000000008152600401610cf690611243565b60405180910390fd5b6002600081905550565b6001600081905550565b600080fd5b600073ffffffffffffffffffffffffffffffffffffffff82169050919050565b6000610d4382610d18565b9050919050565b610d5381610d38565b8114610d5e57600080fd5b50565b600081359050610d7081610d4a565b92915050565b600060208284031215610d8c57610d8b610d13565b5b6000610d9a84828501610d61565b91505092915050565b6000819050919050565b610db681610da3565b82525050565b6000602082019050610dd16000830184610dad565b92915050565b610de081610da3565b8114610deb57600080fd5b50565b600081359050610dfd81610dd7565b92915050565b600060208284031215610e1957610e18610d13565b5b6000610e2784828501610dee565b91505092915050565b6000819050919050565b6000610e55610e50610e4b84610d18565b610e30565b610d18565b9050919050565b6000610e6782610e3a565b9050919050565b6000610e7982610e5c565b9050919050565b610e8981610e6e565b82525050565b6000602082019050610ea46000830184610e80565b92915050565b6000610eb582610e5c565b9050919050565b610ec581610eaa565b82525050565b6000602082019050610ee06000830184610ebc565b92915050565b7f4e487b7100000000000000000000000000000000000000000000000000000000600052601160045260246000fd5b6000610f2082610da3565b9150610f2b83610da3565b9250828203905081811115610f4357610f42610ee6565b5b92915050565b6000610f5482610da3565b9150610f5f83610da3565b9250828202610f6d81610da3565b91508282048414831517610f8457610f83610ee6565b5b5092915050565b7f4e487b7100000000000000000000000000000000000000000000000000000000600052601260045260246000fd5b6000610fc582610da3565b9150610fd083610da3565b925082610fe057610fdf610f8b565b5b828204905092915050565b6000610ff682610da3565b915061100183610da3565b925082820190508082111561101957611018610ee6565b5b92915050565b600082825260208201905092915050565b7f43616e6e6f74207769746864726177205a65726f000000000000000000000000600082015250565b600061106660148361101f565b915061107182611030565b602082019050919050565b6000602082019050818103600083015261109581611059565b9050919050565b6110a581610d38565b82525050565b60006040820190506110c0600083018561109c565b6110cd6020830184610dad565b9392505050565b60008115159050919050565b6110e9816110d4565b81146110f457600080fd5b50565b600081519050611106816110e0565b92915050565b60006020828403121561112257611121610d13565b5b6000611130848285016110f7565b91505092915050565b7f416d6f756e7420697320302063616e6e6f74207374616b652030000000000000600082015250565b600061116f601a8361101f565b915061117a82611139565b602082019050919050565b6000602082019050818103600083015261119e81611162565b9050919050565b60006060820190506111ba600083018661109c565b6111c7602083018561109c565b6111d46040830184610dad565b949350505050565b60006020820190506111f1600083018461109c565b92915050565b7f5265656e7472616e637947756172643a207265656e7472616e742063616c6c00600082015250565b600061122d601f8361101f565b9150611238826111f7565b602082019050919050565b6000602082019050818103600083015261125c81611220565b905091905056fea2646970667358221220d2b599239cd8ae9f64972a4fa28994c6aac45c139ea9ec8754bb52869d4b8c2364736f6c63430008130033",
  "immutableReferences": {},
  "source": "//SPDX-License-Identifier: MIT\n\npragma solidity ^0.8.8;\n\nimport \"./NeoToken.sol\";\nimport \"./RewardToken.sol\";\nimport \"../node_modules/@openzeppelin/contracts/security/ReentrancyGuard.sol\";\n\ncontract StakingPool is ReentrancyGuard{\n\n    //Staking Token \n    NeoToken public neoToken;\n    // reward token to be given to user after staking\n    RewardToken public rewardToken;\n    // reward token per second \n    uint256 public constant RewardRate = 100;\n    uint256 public lastTimeUpdate;\n    //100 per second\n    uint256 public rewardPerTokenStored; \n\n    // uint256 public finishAt;\n    // uint256 public rewardsDuration;\n    \n\n    //mapping of how much user staked in StakingPool\n    mapping (address => uint256) public userStakingBalance;\n    //mapping of how much each user earned rewards per sec after staking\n    mapping (address => uint256) public rewardsEarned;\n    //mapping how much each user has been paid with reward Token\n    mapping (address => uint256) public userRewardPerTokenPaid;\n\n\n    uint256  public stotalSupply ; \n\n    event Staked(address indexed user, uint256 indexed amount);\n    event WithdrewStake(address indexed user, uint256 indexed amount);\n    event RewardsClaimed(address indexed user, uint256 indexed amount);\n\n     modifier updateReward(address account) {\n        rewardPerTokenStored = rewardPerStakedToken();\n        lastTimeUpdate = block.timestamp;\n        rewardsEarned[account] = earned(account);\n        userRewardPerTokenPaid[msg.sender] = rewardPerTokenStored;\n        _;\n     }\n\n    // modifier onlyOwner(){\n    //     require(msg.sender  == owner ,\"Not owner\");\n    //     _;\n    // }\n\n    constructor(address _neoToken, address _rewardToken ){\n        neoToken = NeoToken(_neoToken);\n        rewardToken = RewardToken(_rewardToken);\n    }\n    \n    // function setRewardsDuration(uint _duration) external onlyOwner {\n    //     require(finishAt < block.timestamp, \"reward duration not finished\");\n    //     rewardsDuration = _duration;\n    // }\n\n    function rewardPerStakedToken() public view returns(uint256){\n        if(stotalSupply == 0 ){\n            return rewardPerTokenStored;\n        }\n        return rewardPerTokenStored + (RewardRate *(block.timestamp - lastTimeUpdate)  * 1e18/ stotalSupply);\n    }\n\n    function earned(address account) public view returns(uint256){\n        uint256 currentUserBalance = userStakingBalance[account];\n        uint256 amountPaid = userRewardPerTokenPaid[account];\n        uint256 currentrewardPerToken = rewardPerStakedToken();\n        uint256 pastRewards = rewardsEarned[account]; \n        uint256 earn = ((currentUserBalance * (currentrewardPerToken - amountPaid)/1e18)+ pastRewards);\n        return earn;\n    }\n\n    function stake(uint256 amount)external nonReentrant updateReward(msg.sender) {\n        require(amount > 0, \"Amount is 0 cannot stake 0\");\n        stotalSupply = stotalSupply + amount;\n        userStakingBalance[msg.sender] += amount;\n        neoToken.transferFrom(msg.sender, address(this), amount);\n        rewardToken.mint(address(this));\n        //event Emitted\n        emit Staked(msg.sender, amount);      \n    }\n\n    function unstake(uint256 amount)external nonReentrant updateReward(msg.sender){\n        require(amount > 0 , \"Cannot withdraw Zero\");\n        stotalSupply -= amount;\n        userStakingBalance[msg.sender] -= amount;\n        neoToken.transfer(msg.sender, amount);\n        //event Emitted\n        emit WithdrewStake(msg.sender , amount);\n    }\n\n    function claimRewards() external nonReentrant updateReward(msg.sender){\n        uint256 reward = rewardsEarned[msg.sender];\n        //rewardsEarned[msg.sender] = 0;\n        rewardToken.transfer(msg.sender , reward);\n        emit RewardsClaimed(msg.sender, reward);\n    }\n\n    function totalSupplyStaked() external view returns (uint256) {\n        return stotalSupply;\n    }\n\n    function balanceOfUserStaked(address account) external view returns (uint256) {\n        return userStakingBalance[account];\n    }\n}",
  "sourcePath": "/home/neosoft/Staking_Synthetix/backendFiles/contracts/StakingPool.sol",
  "compiler": {
    "name": "solc",
    "version": "0.8.19+commit.7dd6d404.Emscripten.clang"
  },
  "schemaVersion": "3.4.13",
  "updatedAt": "2023-03-10T13:04:02.308Z",
  "networkType": "ethereum",
  "devdoc": {
    "kind": "dev",
    "methods": {},
    "version": 1
  },
  "userdoc": {
    "kind": "user",
    "methods": {},
    "version": 1
  }
}